{
    "contractName": "TradeAccount",
    "abi": [
        {
            "constant": true,
            "inputs": [
                {
                    "name": "",
                    "type": "uint256"
                }
            ],
            "name": "trades",
            "outputs": [
                {
                    "name": "",
                    "type": "bytes32"
                }
            ],
            "payable": false,
            "stateMutability": "view",
            "type": "function",
            "signature": "0x1e6c598e"
        },
        {
            "constant": true,
            "inputs": [],
            "name": "owner",
            "outputs": [
                {
                    "name": "",
                    "type": "address"
                }
            ],
            "payable": false,
            "stateMutability": "view",
            "type": "function",
            "signature": "0x8da5cb5b"
        },
        {
            "inputs": [
                {
                    "name": "_owner",
                    "type": "address"
                }
            ],
            "payable": false,
            "stateMutability": "nonpayable",
            "type": "constructor",
            "signature": "constructor"
        },
        {
            "payable": true,
            "stateMutability": "payable",
            "type": "fallback"
        },
        {
            "constant": true,
            "inputs": [
                {
                    "name": "trade",
                    "type": "string"
                },
                {
                    "name": "signature",
                    "type": "bytes"
                }
            ],
            "name": "isTradeAuthorised",
            "outputs": [
                {
                    "name": "",
                    "type": "bool"
                }
            ],
            "payable": false,
            "stateMutability": "view",
            "type": "function",
            "signature": "0x6f1f28e8"
        },
        {
            "constant": true,
            "inputs": [
                {
                    "name": "message",
                    "type": "string"
                },
                {
                    "name": "v",
                    "type": "uint8"
                },
                {
                    "name": "r",
                    "type": "bytes32"
                },
                {
                    "name": "s",
                    "type": "bytes32"
                }
            ],
            "name": "verifyString",
            "outputs": [
                {
                    "name": "signer",
                    "type": "address"
                }
            ],
            "payable": false,
            "stateMutability": "pure",
            "type": "function",
            "signature": "0xd2c3fbb7"
        },
        {
            "constant": true,
            "inputs": [
                {
                    "name": "message",
                    "type": "string"
                },
                {
                    "name": "sig",
                    "type": "bytes"
                }
            ],
            "name": "getSigningAccount",
            "outputs": [
                {
                    "name": "signer",
                    "type": "address"
                }
            ],
            "payable": false,
            "stateMutability": "pure",
            "type": "function",
            "signature": "0xf5bfe274"
        },
        {
            "constant": false,
            "inputs": [
                {
                    "name": "token",
                    "type": "address"
                },
                {
                    "name": "amount",
                    "type": "uint256"
                }
            ],
            "name": "withdrawTokens",
            "outputs": [],
            "payable": false,
            "stateMutability": "nonpayable",
            "type": "function",
            "signature": "0x06b091f9"
        },
        {
            "constant": false,
            "inputs": [
                {
                    "name": "tradeId",
                    "type": "uint256"
                },
                {
                    "name": "trade",
                    "type": "string"
                },
                {
                    "name": "tradeHash",
                    "type": "bytes32"
                },
                {
                    "name": "signature",
                    "type": "bytes"
                },
                {
                    "name": "data",
                    "type": "bytes"
                },
                {
                    "name": "to",
                    "type": "address"
                }
            ],
            "name": "executeTrade",
            "outputs": [
                {
                    "name": "",
                    "type": "bool"
                }
            ],
            "payable": false,
            "stateMutability": "nonpayable",
            "type": "function",
            "signature": "0x430178e9"
        },
        {
            "constant": true,
            "inputs": [
                {
                    "name": "tradeId",
                    "type": "uint256"
                },
                {
                    "name": "tradeHash",
                    "type": "bytes32"
                }
            ],
            "name": "doesTradeExist",
            "outputs": [
                {
                    "name": "",
                    "type": "bool"
                }
            ],
            "payable": false,
            "stateMutability": "view",
            "type": "function",
            "signature": "0xc06ab90a"
        },
        {
            "constant": false,
            "inputs": [
                {
                    "name": "tradeHash",
                    "type": "bytes32"
                },
                {
                    "name": "tradeId",
                    "type": "uint256"
                }
            ],
            "name": "storeTrade",
            "outputs": [],
            "payable": false,
            "stateMutability": "nonpayable",
            "type": "function",
            "signature": "0xd413b13e"
        }
    ],
    "bytecode": "0x608060405234801561001057600080fd5b506040516020806114628339810180604052602081101561003057600080fd5b8101908080519060200190929190505050806000806101000a81548173ffffffffffffffffffffffffffffffffffffffff021916908373ffffffffffffffffffffffffffffffffffffffff160217905550506113d1806100916000396000f3fe608060405260043610610099576000357c0100000000000000000000000000000000000000000000000000000000900463ffffffff16806306b091f91461009b5780631e6c598e146100f6578063430178e9146101455780636f1f28e8146103875780638da5cb5b146104fe578063c06ab90a14610555578063d2c3fbb7146105b2578063d413b13e146106db578063f5bfe27414610720575b005b3480156100a757600080fd5b506100f4600480360360408110156100be57600080fd5b81019080803573ffffffffffffffffffffffffffffffffffffffff169060200190929190803590602001909291905050506108bf565b005b34801561010257600080fd5b5061012f6004803603602081101561011957600080fd5b8101908080359060200190929190505050610cc1565b6040518082815260200191505060405180910390f35b34801561015157600080fd5b5061036d600480360360c081101561016857600080fd5b81019080803590602001909291908035906020019064010000000081111561018f57600080fd5b8201836020820111156101a157600080fd5b803590602001918460018302840111640100000000831117156101c357600080fd5b91908080601f016020809104026020016040519081016040528093929190818152602001838380828437600081840152601f19601f820116905080830192505050505050509192919290803590602001909291908035906020019064010000000081111561023057600080fd5b82018360208201111561024257600080fd5b8035906020019184600183028401116401000000008311171561026457600080fd5b91908080601f016020809104026020016040519081016040528093929190818152602001838380828437600081840152601f19601f820116905080830192505050505050509192919290803590602001906401000000008111156102c757600080fd5b8201836020820111156102d957600080fd5b803590602001918460018302840111640100000000831117156102fb57600080fd5b91908080601f016020809104026020016040519081016040528093929190818152602001838380828437600081840152601f19601f820116905080830192505050505050509192919290803573ffffffffffffffffffffffffffffffffffffffff169060200190929190505050610cd9565b604051808215151515815260200191505060405180910390f35b34801561039357600080fd5b506104e4600480360360408110156103aa57600080fd5b81019080803590602001906401000000008111156103c757600080fd5b8201836020820111156103d957600080fd5b803590602001918460018302840111640100000000831117156103fb57600080fd5b91908080601f016020809104026020016040519081016040528093929190818152602001838380828437600081840152601f19601f8201169050808301925050505050505091929192908035906020019064010000000081111561045e57600080fd5b82018360208201111561047057600080fd5b8035906020019184600183028401116401000000008311171561049257600080fd5b91908080601f016020809104026020016040519081016040528093929190818152602001838380828437600081840152601f19601f820116905080830192505050505050509192919290505050610f14565b604051808215151515815260200191505060405180910390f35b34801561050a57600080fd5b50610513610f77565b604051808273ffffffffffffffffffffffffffffffffffffffff1673ffffffffffffffffffffffffffffffffffffffff16815260200191505060405180910390f35b34801561056157600080fd5b506105986004803603604081101561057857600080fd5b810190808035906020019092919080359060200190929190505050610f9c565b604051808215151515815260200191505060405180910390f35b3480156105be57600080fd5b50610699600480360360808110156105d557600080fd5b81019080803590602001906401000000008111156105f257600080fd5b82018360208201111561060457600080fd5b8035906020019184600183028401116401000000008311171561062657600080fd5b91908080601f016020809104026020016040519081016040528093929190818152602001838380828437600081840152601f19601f820116905080830192505050505050509192919290803560ff1690602001909291908035906020019092919080359060200190929190505050610fbc565b604051808273ffffffffffffffffffffffffffffffffffffffff1673ffffffffffffffffffffffffffffffffffffffff16815260200191505060405180910390f35b3480156106e757600080fd5b5061071e600480360360408110156106fe57600080fd5b810190808035906020019092919080359060200190929190505050611265565b005b34801561072c57600080fd5b5061087d6004803603604081101561074357600080fd5b810190808035906020019064010000000081111561076057600080fd5b82018360208201111561077257600080fd5b8035906020019184600183028401116401000000008311171561079457600080fd5b91908080601f016020809104026020016040519081016040528093929190818152602001838380828437600081840152601f19601f820116905080830192505050505050509192919290803590602001906401000000008111156107f757600080fd5b82018360208201111561080957600080fd5b8035906020019184600183028401116401000000008311171561082b57600080fd5b91908080601f016020809104026020016040519081016040528093929190818152602001838380828437600081840152601f19601f820116905080830192505050505050509192919290505050611345565b604051808273ffffffffffffffffffffffffffffffffffffffff1673ffffffffffffffffffffffffffffffffffffffff16815260200191505060405180910390f35b6000809054906101000a900473ffffffffffffffffffffffffffffffffffffffff1673ffffffffffffffffffffffffffffffffffffffff163373ffffffffffffffffffffffffffffffffffffffff16141515610983576040517f08c379a00000000000000000000000000000000000000000000000000000000081526004018080602001828103825260178152602001807f6f6e6c79206f776e65722063616e20776974686472617700000000000000000081525060200191505060405180910390fd5b600073ffffffffffffffffffffffffffffffffffffffff168273ffffffffffffffffffffffffffffffffffffffff161415610a9257803073ffffffffffffffffffffffffffffffffffffffff1631111515610a46576040517f08c379a00000000000000000000000000000000000000000000000000000000081526004018080602001828103825260168152602001807f6e6f7420656e6f756768204554482062616c616e63650000000000000000000081525060200191505060405180910390fd5b3373ffffffffffffffffffffffffffffffffffffffff166108fc829081150290604051600060405180830381858888f19350505050158015610a8c573d6000803e3d6000fd5b50610cbd565b808273ffffffffffffffffffffffffffffffffffffffff166370a08231306040518263ffffffff167c0100000000000000000000000000000000000000000000000000000000028152600401808273ffffffffffffffffffffffffffffffffffffffff1673ffffffffffffffffffffffffffffffffffffffff16815260200191505060206040518083038186803b158015610b2c57600080fd5b505afa158015610b40573d6000803e3d6000fd5b505050506040513d6020811015610b5657600080fd5b810190808051906020019092919050505010151515610bdd576040517f08c379a00000000000000000000000000000000000000000000000000000000081526004018080602001828103825260188152602001807f6e6f7420656e6f75676820746f6b656e2062616c616e6365000000000000000081525060200191505060405180910390fd5b8173ffffffffffffffffffffffffffffffffffffffff1663a9059cbb33836040518363ffffffff167c0100000000000000000000000000000000000000000000000000000000028152600401808373ffffffffffffffffffffffffffffffffffffffff1673ffffffffffffffffffffffffffffffffffffffff16815260200182815260200192505050602060405180830381600087803b158015610c8057600080fd5b505af1158015610c94573d6000803e3d6000fd5b505050506040513d6020811015610caa57600080fd5b8101908080519060200190929190505050505b5050565b60016020528060005260406000206000915090505481565b6000610ce58685610f14565b1515610d59576040517f08c379a00000000000000000000000000000000000000000000000000000000081526004018080602001828103825260128152602001807f756e617574686f7269736564207472616465000000000000000000000000000081525060200191505060405180910390fd5b610d638786610f9c565b1515610dd7576040517f08c379a00000000000000000000000000000000000000000000000000000000081526004018080602001828103825260148152602001807f747261646520646f6573206e6f7420657869737400000000000000000000000081525060200191505060405180910390fd5b60008273ffffffffffffffffffffffffffffffffffffffff16846040518082805190602001908083835b602083101515610e265780518252602082019150602081019050602083039250610e01565b6001836020036101000a0380198251168184511680821785525050505050509050019150506000604051808303816000865af19150503d8060008114610e88576040519150601f19603f3d011682016040523d82523d6000602084013e610e8d565b606091505b50509050801515610f06576040517f08c379a00000000000000000000000000000000000000000000000000000000081526004018080602001828103825260168152602001807f747261646520657865637574696f6e206661696c65640000000000000000000081525060200191505060405180910390fd5b809150509695505050505050565b6000610f208383611345565b73ffffffffffffffffffffffffffffffffffffffff166000809054906101000a900473ffffffffffffffffffffffffffffffffffffffff1673ffffffffffffffffffffffffffffffffffffffff1614905092915050565b6000809054906101000a900473ffffffffffffffffffffffffffffffffffffffff1681565b600081600160008581526020019081526020016000205414905092915050565b600060606040805190810160405280602081526020017f19457468657265756d205369676e6564204d6573736167653a0a303030303030815250905060008087519050603983019150620f423f8111151515611080576040517f08c379a00000000000000000000000000000000000000000000000000000000081526004018080602001828103825260138152602001807f6578636565646564206d6178206c656e6774680000000000000000000000000081525060200191505060405180910390fd5b60008090506000620186a090505b60008114151561110557600081848115156110a557fe5b04905060008114156110d05760008314156110cf57600a828115156110c657fe5b0491505061108e565b5b828060010193505081810284039350600a828115156110eb57fe5b04915060308101905084806001019550508085535061108e565b600082141561111757601b915061111e565b601a820191505b8185526000858b6040516020018083805190602001908083835b60208310151561115d5780518252602082019150602081019050602083039250611138565b6001836020036101000a03801982511681845116808217855250505050505090500182805190602001908083835b6020831015156111b0578051825260208201915060208101905060208303925061118b565b6001836020036101000a038019825116818451168082178552505050505050905001925050506040516020818303038152906040528051906020012090506001818b8b8b60405160008152602001604052604051808581526020018460ff1660ff1681526020018381526020018281526020019450505050506020604051602081039080840390855afa15801561124b573d6000803e3d6000fd5b505050602060405103519650505050505050949350505050565b6000809054906101000a900473ffffffffffffffffffffffffffffffffffffffff1673ffffffffffffffffffffffffffffffffffffffff163373ffffffffffffffffffffffffffffffffffffffff16141515611329576040517f08c379a00000000000000000000000000000000000000000000000000000000081526004018080602001828103825260188152602001807f6f6e6c79206f776e657220697320617574686f7269736564000000000000000081525060200191505060405180910390fd5b8160016000838152602001908152602001600020819055505050565b60008060008060418551141515611362576000935050505061139f565b6020850151925060408501519150606085015160001a9050601b8160ff16101561138d57601b810190505b61139986828585610fbc565b93505050505b9291505056fea165627a7a723058203c2f91ea79402ebc4c895bdbeb56c9c3e8e96e9d710f4a5dc621d6b288fcb9c30029",
    "source": "pragma solidity ^0.5.0;\n\n/** Trade account mapped to and owned by user\n */\ncontract TradeAccount {\n    address public owner;\n    mapping(uint => bytes32) public trades;\n\n    constructor(address _owner) public {\n        owner = _owner;\n    }\n\n    /** default function */\n    function () external payable {}\n    \n   /** verify if the given trade is authorised by account owner */\n    function isTradeAuthorised(string memory trade, bytes memory signature)\n            public view returns (bool){\n        return address(owner) == address(getSigningAccount(trade, signature));\n    }\n\n    /** returns the address that signed a given string message */\n    function verifyString(string memory message, uint8 v, bytes32 r,\n            bytes32 s) public pure returns (address signer) {\n    // The message header; we will fill in the length next\n        string memory header = \"\\x19Ethereum Signed Message:\\n000000\";\n        uint256 lengthOffset;\n        uint256 length;\n        assembly {\n        // The first word of a string is its length\n        length := mload(message)\n        // The beginning of the base-10 message length in the prefix\n        lengthOffset := add(header, 57)\n        }\n        // Maximum length we support\n        require(length <= 999999, 'exceeded max length');\n        // The length of the message's length in base-10\n        uint256 lengthLength = 0;\n        // The divisor to get the next left-most message length digit\n        uint256 divisor = 100000;\n        // Move one digit of the message length to the right at a time\n        while (divisor != 0) {\n            // The place value at the divisor\n            uint256 digit = length / divisor;\n            if (digit == 0) {\n                // Skip leading zeros\n                if (lengthLength == 0) {\n                divisor /= 10;\n                continue;\n                }\n            }\n            // Found a non-zero digit or non-leading zero digit\n            lengthLength++;\n            // Remove this digit from the message length's current value\n            length -= digit * divisor;\n            // Shift our base-10 divisor over\n            divisor /= 10;\n            // Convert the digit to its ASCII representation (man ascii)\n            digit += 0x30;\n            // Move to the next character and write the digit\n            lengthOffset++;\n            assembly {\n                mstore8(lengthOffset, digit)\n            }\n        }\n        // The null string requires exactly 1 zero (unskip 1 leading 0)\n        if (lengthLength == 0) {\n        lengthLength = 1 + 0x19 + 1;\n        } else {\n        lengthLength += 1 + 0x19;\n        }\n        // Truncate the tailing zeros from the header\n        assembly {\n        mstore(header, lengthLength)\n        }\n        // Perform the elliptic curve recover operation\n        bytes32 check = keccak256(abi.encodePacked(header, message));\n        return ecrecover(check, v, r, s);\n    }\n\n    /** retrieve account address that signed this message */\n   function getSigningAccount(string memory message, bytes memory sig)\n            public pure returns (address signer) {\n        bytes32 r;\n        bytes32 s;\n        uint8 v;\n\n        //Check the signature length\n        if (sig.length != 65) {\n            return (address(0));\n        }\n\n        // Divide the signature in r, s and v variables\n        assembly {\n            r := mload(add(sig, 32))\n            s := mload(add(sig, 64))\n            v := byte(0, mload(add(sig, 96)))\n        }\n\n        // Version of signature should be 27 or 28, but 0 and 1 are also possible versions\n        if (v < 27) {\n            v += 27;\n        }\n        return verifyString(message, v,r,s);\n    }\n\n    /** withdraw tokens from contract balance */\n    function withdrawTokens(address token, uint amount) public {\n        //validate that sender is the account owner\n        require(msg.sender == owner, 'only owner can withdraw');\n        //check if ETH needs to be withdrawn\n        if(token == 0x0000000000000000000000000000000000000000) {\n            //validate if account has enough ETH balance\n            require(address(this).balance > amount, 'not enough ETH balance');\n            //send ETH\n            msg.sender.transfer(amount);\n            return;\n        }\n        //validate if account has enough token balance\n        require(ERC20(token).balanceOf(address(this)) >= amount, 'not enough token balance');\n        //transfer token\n        ERC20(token).transfer(msg.sender, amount);\n    }\n\n    /** executes given trade on given DEX (to field)*/\n    function executeTrade(uint tradeId, string memory trade, bytes32 tradeHash, bytes memory signature, bytes memory data, address to)\n            public returns (bool){\n        //verify is this trade is authorised by account owner\n        require(isTradeAuthorised(trade, signature), 'unauthorised trade');\n        //verify if trade exists\n        require(doesTradeExist(tradeId, tradeHash), 'trade does not exist');\n        //revert if trade execution fails\n        (bool success,) = address(to).call(data);\n        require(success, 'trade execution failed');\n        return success;\n    }\n    \n    function doesTradeExist(uint tradeId, bytes32 tradeHash) public view returns (bool){\n        return trades[tradeId] == tradeHash;\n    }\n\n    function storeTrade(bytes32 tradeHash, uint tradeId) public {\n        //check if sender is account owner\n        require(msg.sender == owner, 'only owner is authorised');\n        trades[tradeId] = tradeHash;\n    }\n    \n\n}\n\ncontract ERC20 {\n        function totalSupply() public view returns (uint);\n        function balanceOf(address tokenOwner) public view returns (uint balance);\n        function allowance(address tokenOwner, address spender) public view returns (uint remaining);\n        function transfer(address to, uint tokens) public returns (bool success);\n        function approve(address spender, uint tokens) public returns (bool success);\n        function transferFrom(address from, address to, uint tokens) public returns (bool success);\n        event Transfer(address indexed from, address indexed to, uint tokens);\n        event Approval(address indexed tokenOwner, address indexed spender, uint tokens);\n    }",
    "sourcePath": "/Users/manan/projects/tannacci/truffle/contracts/TradeAccount.sol",
    "compiler": {
        "name": "solc",
        "version": "0.5.0+commit.1d4f565a.Emscripten.clang"
    },
    "schemaVersion": "3.0.8",
    "updatedAt": "2019-08-24T21:09:27.580Z",
    "devdoc": {
        "methods": {}
    },
    "userdoc": {
        "methods": {
            "executeTrade(uint256,string,bytes32,bytes,bytes,address)": {
                "notice": "executes given trade on given DEX (to field)"
            },
            "getSigningAccount(string,bytes)": {
                "notice": "retrieve account address that signed this message "
            },
            "isTradeAuthorised(string,bytes)": {
                "notice": "verify if the given trade is authorised by account owner "
            },
            "verifyString(string,uint8,bytes32,bytes32)": {
                "notice": "returns the address that signed a given string message "
            },
            "withdrawTokens(address,uint256)": {
                "notice": "withdraw tokens from contract balance "
            }
        },
        "notice": "Trade account mapped to and owned by user"
    }
}